:080C69004C4154004C4F4E00B9
:0C0C4600065024475047474102080000B8
:080BA900C291D2927F017E008F
:100BB100E4FDFCC3ED9FEC9E5015E4FBFA0BBB007A
:0F0BC100010ABA04F8BBFBF50DBD00010C80E47E
:010BD0002202
:0A0C5F008FA0C290120BA9C29222CE
:050C3700257FF8E6FF37
:0A0C3C008FA0D290120BA9C29222E1
:060B1D008B778A788979CC
:100B2300E4F57AF57BAB77AA78A979857B82857A18
:100B330083120B7CFF6014120C3C057BE57B700277
:0B0B4300057A7F0A7E00120BB180DAF9
:010B4E002284
:0C0C5300758920758DFD759850D28E2299
:100BD100E4FFFEFDFC740A2DF8E6B42C0DAB050F05
:100BE100EF70010E142459F8A6030DBD00010CEDA0
:050BF10064464C70E0B9
:010BF60022DC
:100BF7007F41120C127F54120C127F2B120C127FA2
:0B0C070043120C127F4D120C127F47AD
:080C12008F993099FDC299226F
:10080000E4F5A8120BD1120ADF3082030209047F3B
:1008100041120C127F54120C127F0D120C127F2CFD
:100820007E01120BB1120BF71F120C127F3D120C3E
:10083000127F31120C127F0D120C12120BF77F5324
:10084000120C127F3D120C127F22120C127F3012FA
:100850000C127F39120C127F37120C121F120C125D
:100860007F38120C127F34120C127F37120C127F59
:1008700033120C127F36120C127F32120C127F369A
:10088000120C127F22120C127F0D120C127F2C12EE
:100890000BB17F4C120C127F41120C127F54120CC0
:1008A00012E4F574F57574682575F8E6FF120C12FC
:1008B0000575E57570020574C3940CE57464809445
:1008C0008040E37F20120C127F647E00120BB17F08
:1008D0004C120C127F4F120C121F120C12E4F57402
:1008E000F57574762575F8E6FF120C120575E57539
:1008F00070020574C3940CE5746480948040E37FB7
:0D0900001A120C12E4F508F50975A89022F2
:03002300020A9638
:100A9600C0E0C0D075D000C000C006C0070509E59B
:100AA600097002050814240AF8A699C3E5099407F3
:100AB600E50894005016AF09744F2FF8E6FE740946
:100AC6002FF8E66E6006750800750900C298D00713
:090AD600D006D000D0D0D0E032EF
:100B4F007F40120C5F7F0A120C3C7F11120C3C7F0E
:100B5F0011120C3C7F0A120C3CE4FF120C3CE4FF18
:0D0B6F00120C3CE4FF120C3CE4FF020C3CB5
:10090D00AF5AEF3395E0F57C8F7D120B4F7F0112BF
:10091D000C5F7F80120C5F7BFF7A0C7969120B1DC7
:10092D00740B257DF8E6FF120C3C740C257DF8E662
:10093D00FF120C3CE4FF120C3C740D257DF8E6FF14
:10094D00120C3C740E257DF8E6FF120C3C740F253D
:10095D007DF8E6FF120C3C7410257DF8E6FF120CB5
:10096D003C7411257DF8E6FF120C3C7412257DF8C0
:10097D00E6FF120C3C7413257DF8E6FF120C3C7F4C
:10098D0027120C3C7414257DF8E6FF120C3C7415EF
:08099D00257DF8E6FF020C3C89
:100ADF00AF5AEF3395E0FEAD5CED3395E0FCE4F5F6
:100AEF0074F575A975EF29240AF8E6FB746829F8DF
:100AFF00A603ED29240AF8E6FB747629F8A6030568
:0D0B0F0075E57570020574640C457470D6B0
:010B1C0022B6
:100A3100AF5CEF3395E0F57E8F7F7FC0120C5F7B5B
:100A4100FF7A0C796D120B1D740B120C37740C129A
:100A51000C37740D120C37E4FF120C3C740E120C9F
:100A610037740F120C377410120C377411120C37C3
:100A71007412120C377413120C377414120C377F62
:100A810027120C3C7415120C377416120C377FFAAE
:050A91007E00020BB124
:100C1A00120C537F38120C5F7F0E120C5F75A8906E
:0D0C2A00E5096445450870F812080080F3E4
:030000000209A54D
:0C09A500787FE4F6D8FD75817F0209EC34
:100B7C00BB010CE58229F582E5833AF583E022502E
:100B8C0006E92582F8E622BBFE06E92582F8E22278
:0D0B9C00E58229F582E5833AF583E4932292
:1009B100020C1AE493A3F8E493A34003F68001F236
:1009C10008DFF48029E493A3F85407240CC8C33347
:1009D100C4540F4420C8834004F456800146F6DF16
:1009E100E4800B0102040810204080900C46E47E54
:1009F100019360BCA3FF543F30E509541FFEE4930B
:100A0100A360010ECF54C025E060A840B8E493A3D1
:100A1100FAE493A3F8E493A3C8C582C8CAC583CAFC
:100A2100F0A3C8C582C8CAC583CADFE9DEE780BEB4
:010C520000A1
:00000001FF
